:1080000028C70020B1BD00008380010085BD0000AD
:1080100085BD000085BD000085BD000085BD000058
:10802000000000000000000000000000A5B60000F5
:1080300085BD00000000000045B6000085BD0000C1
:108040002DB700002DB700002DB700002DB70000A0
:108050002DB700002DB700002DB700002DB7000090
:108060002DB700002DB700002DB700002DB7000080
:108070002DB700002DB700002DB700002DB7000070
:108080002DB700002DB700002DB700002DB7000060
:108090002DB700002DB700002DB700002DB7000050
:1080A0002DB700002DB700002DB700002DB7000040
:1080B0002DB700002DB700002DB700002DB7000030
:1080C0002DB700002DB700002DB700002DB7000020
:1080D0002DB700002DB700002DB700002DB7000010
:1080E0002DB700002DB700002DB700002DB7000000
:1080F0002DB700002DB700002DB700002DB70000F0
:108100002DB700002DB700002DB700002DB70000DF
:108110002DB700002DB700002DB700002DB70000CF
:108120002DB700002DB700002DB700002DB70000BF
:108130002DB700002DB700002DB700002DB70000AF
:108140002DB700002DB700002DB700002DB700009F
:048150002DB7000047
:1081540053B94AB9002908BF00281CBF4FF0FF31AA
:108164004FF0FF3000F00CB8ADF1080C6DE904CE0F
:1081740000F008F8DDF804E0DDE9022304B07047FC
:10818400704700BF2DE9F04786468C460846089E96
:10819400154674461946002B40F0C1808542B2FA58
:1081A40082F245D94AB1C2F1200300FA02FC95409B
:1081B40094402EFA03F343EA0C0C4FEA154EA8B28E
:1081C400230CBCFBFEF80EFB18CC08FB00F943EAB9
:1081D4000C43994528D9EB1808F1FF3704D2994587
:1081E40002D9A8F102072B44A3EB0903A4B2B3FB01
:1081F400FEFC0EFB1C330CFB00F044EA0344A042DB
:1082040014D92C190CF1FF3304D2A04202D9ACF1D9
:1082140002032C44241A43EA07401EB1D44000232D
:1082240034607360BDE8F0874746DDE76346F1E7F5
:1082340092BB431B01214FEA154EAFB2200CB3FB96
:10824400FEFC0EFB1C330CFB07F840EA0343984585
:1082540061D9EB180CF1FF3004D2984502D9ACF186
:1082640002002B44A3EB0803A4B2B3FBFEFC0EFBF9
:108274001C330CFB07F744EA0344A7424DD92C19DD
:108284000CF1FF3304D2A74202D9ACF102032C440F
:10829400E41B43EA0040C0E7C2F120039540944048
:1082A40020FA03F12EFA03F34FEA154E9040AFB2D1
:1082B4000343B1FBFEFC0EFB1C10190C0CFB07F86E
:1082C40041EA0041884522D969180CF1FF3004D2F3
:1082D400884502D9ACF102002944A1EB08019BB204
:1082E400B1FBFEFC0EFB1C110CFB07F743EA014338
:1082F4009F420ED9EB180CF1FF3104D29F4202D9F0
:10830400ACF102012B44DB1B41EA004193E76046D8
:10831400E3E76146F7E76046A4E76346B8E78342CC
:1083240006D916B9002108467CE7C6E900E0F9E75A
:10833400B3FA83F78FB9834201D3724508D8BEEBF1
:10834400020460EB030301209C461EB9002169E787
:108354003846FAE7C6E9004CF8E7C7F1200CBB4001
:108364000EFA07F522FA0CF42EFA0CF1BA401C436B
:1083740020FA0CF3B8404FEA144901431FFA84FE73
:10838400B3FBF9F809FB18300B0C08FB0EFA43EAAF
:1083940000439A4540D9E31808F1FF3004D29A45C6
:1083A40002D9A8F102002344A3EB0A0389B2B3FB68
:1083B400F9F809FB183308FB0EFE41EA03418E4528
:1083C4002CD9611808F1FF3304D28E4502D9A8F1E3
:1083D4000203214443EA0040A1EB0E01A0FB0298F2
:1083E4004145CE46434602D306D14D4504D2013819
:1083F400B9EB020E68EB0403002EA7D0B5EB0E0216
:1084040061EB030101FA0CFC22FA07F3F9404CEA90
:108414000303C6E9003199E74046C5E74346D9E777
:10842400014B1878704700BFDC9B002008B5044856
:108434000EF0B4F9BDE80840012011F02DBC00BFD6
:108444000CC2010008B521B1BDE8084005480EF092
:10845400A5B905480EF0A2F9BDE80840012011F0C5
:1084640018BC00BF26C2010042C20100CA0738B5C9
:108474000D4606D500F00104204600F04BF9074BE9
:108484001C70AB0708D50621054A13780133B3FBEA
:10849400F1F001FB1033137038BD00BFDC9B0020EA
:1084A400DD9B002037B5164C164D22686846C72A56
:1084B40002F1010308BF6423236000F09BF901204B
:1084C40000F04AF9287800F047F9022000F044F956
:1084D400BDF8000000F040F9032000F03DF9BDF8BC
:1084E400020000F039F9042000F036F9BDF8040068
:1084F40000F032F900214FF480400DF09FFDD4E7E5
:1085040024820020DD9B0020F0B589B06C4602AFC8
:108514000226414B3E617B6100234FF486513F4864
:1085240007F1100202F0E8F90BF0A2F988B188B063
:1085340002AA3B4BC2E90530032342F8103F002353
:108544004FF4C251354802F0D7F9A5461C37BD4651
:10855400F0BD34480BF0C6F9054630B905F0CCFC43
:1085640060B188B002AA304BE4E701462F480EF010
:1085740015F929462E480EF011F9E7E72D4806F0C3
:10858400BBFF2D4800F0BCF810B101462B48F2E7C0
:108594002B4BC7E904634FF48651034607F11002DD
:1085A4001E4802F0A9F90123324600932549264BBF
:1085B400264806F093F9034628B188B002AA244954
:1085C400C2E90510B8E7234AC7E904624FF48651AB
:1085D400124807F1100202F08FF900F0DDF80446AA
:1085E400A8B91D4D013404F0010100200BF00CFA70
:1085F40000214FF400400DF021FD384600F0FAF858
:108604002846BB887A8839880EF0C8F8EAE7134808
:108614000EF0C4F89AE700BF4DC2010048B801004B
:108624006EC2010071840000C5C2010089C201004C
:10863400A8C20100088200201C820020E5C20100BB
:1086440002C3010000BA0100F8B901002882002029
:1086540019C301003FC301007CC3010061C30100D1
:108664008B1E59425941014B19707047DF9B002002
:108674004B1E59425941014B19707047E09B002031
:1086840008B5012BBDF808100CD171B90A4B1B6851
:108694000BB9012008BD1078012809D800F00100A9
:1086A4009847F6E76FF00C00F4E76FF00600F1E787
:1086B4006FF01200EEE700BF989700202DE9FF410C
:1086C4001F460D4B054658680C46164680B1D1F836
:1086D4000C808047094B324618700123CDE9018391
:1086E400BDF828302146009328463B4610F0B7FEDB
:1086F40004B0BDE8F08100BF98970020DE9B002005
:1087040020B1034B02681A6042685A600020704727
:108714009897002007B50C4B8DF807001B7883B1A0
:108724000A490B4B00204B600A4BC8608B600DF16B
:1087340007030B6101238B8208F068FE03B05DF828
:1087440004FB6FF00C00F9E7DF9B0020809700200A
:1087540038BA0100C566010000B50D4B89B01B781D
:10876400019093B10021182202A80FF029FD094BB2
:108774000020039301AB0493042302A9ADF8143041
:1087840008F0CAFF09B05DF804FB6FF00C00F9E7CC
:10879400E09B00209CBA010038B50025124C54F827
:1087A400060C12F07DF828B910480DF0F7FF4FF0D1
:1087B400FF3038BD14F8013C63B154F8060C8368EB
:1087C40021461B689847021E07DA294608480DF01F
:1087D400E5FFECE76FF08502F7E70135032D04F1BF
:1087E4001404DCD10020E4E7CABA0100C5C30100C7
:1087F400E6C301002DE9F04F142200268BB0314668
:1088040007460DEB02000FF0DBFC0DF10E0307939E
:10881400022337480893B146B0460DF0BFFF3546F2
:10882400B2464FF0140B334C637953B101222379D0
:1088340002FA03F30693237C8DF82430637C8DF8CD
:1088440025302068836805A95B689847011E10DA03
:1088540029480DF0A3FF0135032D04F11404E3D1DD
:108864003846A7F800907E80A7F804800BB0BDE8D6
:10887400F08F45B9D1466279BDF90E3042B91F482F
:108884000DF08CFFE7E7012D0CBF5646D046F2E70A
:10889400E2791848042A08BF22680BFB05000ABFC6
:1088A4009268E1891189807A5943227C800644BF09
:1088B40002F1FF32D2B20491A07904A9009301928B
:1088C40009F088F90028009B08D1049B019A134100
:1088D4009BB22DB9994601251434A5E7CFDBF7E700
:1088E400012D03D11E46022514349DE79846B7E7AF
:1088F40008C40100C4BA010016C401002BC401005D
:108904002DE9F04F91B0009302F004030293C2F3F7
:10891400C2030133840705460E46DDF868800392DE
:10892400059340F0BD81041D30B1072909D86FF0CB
:108934001B0011B0BDE8F08F01F00706341DC6F12D
:108944000806009B4FF000094FF0040A591E4FF02F
:10895400FF334F460193CB465346CDF810900DB1EB
:10896400009A22600598002800F3EB809948009A49
:10897400824203D398488242C0F0E380039AA4EB76
:10898400050E92074FEA9E0000F106810F2F00F2B8
:10899400B480002D00F0088107F140020DEB020CB9
:1089A400019A0CF8200C0CF8102C04980130049057
:1089B400EAE07A2860D84B280ED847285CD82928C2
:1089C4002FD8252855D057D820287DD02338D0F14A
:1089D400000B4BEB000B77E0A0F14C0CBCF12E0F1D
:1089E4004AD8DFE80CF0714949494949494949499C
:1089F40049494C49494949494949495A494C4C5AB8
:108A04005A5A714C6E497149184C18494983804C23
:108A140049494C49800000204FF0000B4FF0040AF4
:108A240039E00122A0F12A0C5FFA8CFC02FA0CFC5A
:108A34001CEA0E0F48D11CF062502ED11CEA020B26
:108A440042D0013C5444CAF1000C04EA0C04002D49
:108A540061D0A3EB050CA444B4453FF668AF0028ED
:108A640068D1042B47D158F8043B23600423043411
:108A74002AE0019A013A01924FF0000B24E011F828
:108A8400010C6C2834D1002011F8023C83466C2B75
:108A9400C4D14FF0080A5346D3E708F1070828F079
:108AA4000708073424F00704F8E802AB35B1069848
:108AB4002044B0423FF63BAFC4E900AB4FF0000B9B
:108AC40008344FF0080A534611F8010F002878D0F3
:108AD400BBF1000F7FF46DAF2528F5D14FF0010BEA
:108AE400019B013301934FF0040AECE7584693E7E6
:108AF40000208346A5E7082B02D06FF0150018E785
:108B040008F1070828F00708F8E80223C4E900235D
:108B140008230834D8E768B9042B02D108F1040803
:108B2400A4E7082BE9D108F1070828F0070808F1A1
:108B34000808EDE7059A013A059258F8042B0092CB
:108B44000DE7039A900720D54FF0010CA4EB050E16
:108B54004FEA9E00BEF5007FCFD20F2FCDD8F5B1DE
:108B640007F140020DEB020E019AC0B20EF8200C80
:108B74000EF8102CBCF1000F3FF417AF60F07F002B
:108B84000EF8200C09F101090137C5F108024FF66E
:108B9400DA7E0434069297E74FF0000CDAE7BCF172
:108BA400000F01D00136EFE7029802360028EBD11E
:108BB4000098CDE906310FF0B9FADDE90631064433
:108BC400E2E7631BB3F5806F97D23DB9A6F10804C1
:108BD400E018AEE6ECB3010020E70100029A9B081E
:108BE40028602B709DF81030C2B1EB7085F80290AC
:108BF400B9F1000F05D0002208A8C5F1010C974275
:108C04000ED14FF0000AC5F101030DF120080193C4
:108C14000DF1300B574512D1601B8AE66B70E5E706
:108C240010F8013B190608D504EB0C0EB64503F009
:108C34007F033FF67CAE04F8013B0132DFE7B9F174
:108C4400000F03D098F90020002A17DB029BD3B150
:108C54001AF80B2004F8012B0022019B98182044D9
:108C6400B0423FF664AE98F80000009904F8010B96
:108C7400204603920FF099FA039A14440AF1010A68
:108C840008F10108C6E798F8002055F8223000934F
:108C9400029B009845F822300FF048FA421CDCE7AA
:108CA4006FF00D0045E600BF2DE9F04F95B000AF21
:108CB400D7F878B0BB61CBF3C00304467A623B615A
:108CC400396251B903784678807800EB83002044F8
:108CD4003B6A9E421AD8031B3B6294F802A0E378D5
:108CE40056467B61BAF1000F02D01BF0010F17D179
:108CF4007B695BBB7B6A1BB12046BA69396A9847BA
:108D04003D6A28465437BD46BDE8F08F451C2846C9
:108D14000FF00CFA3B6A0130013328443B62D7E779
:108D2400636894F80080FB617B6A4FEA8802FA600A
:108D340004EB8808002B40F00281C14600263D6AFE
:108D44000AEB08034B454ED1D04413E01BF0020F4D
:108D5400D0D094F800804FEA8803FB60636804EB8A
:108D64008808FB617B6A002B78D13D6ABAF1000F59
:108D74004ED156461BF0050F0CBF022301237B6224
:108D84007B6908EB430A0BF002033B62D045B8D081
:108D940018F8021B18F8013C54F82390AD4B994580
:108DA40002D3AD4B994539D33B69002B43D0F869C5
:108DB4000DF0B8FC00283ED0E9468AB06A46A74BBD
:108DC4005361FB69C2E906314FF400731384A44B69
:108DD40042F8103F00234FF41251A24801F08CFDD9
:108DE400023DCD46D2E719F8012B7B6254F82200EC
:108DF4000FF09CF9FA6F7B6A01303AB1D7F8802002
:108E040096423EBFFA6F22F816000136054499E7F0
:108E14001BF004061CBF7E6AD044ABE73B6923B158
:108E2400F8690DF07FFC0028C6D11BF0010F05D1B5
:108E34007B6AED1AAAE73B6A002BA7D048460FF0DD
:108E440075F9FB6F43B1D7F880309E423FBFFA6F8C
:108E5400431C22F816300136054497E7BAF1000F97
:108E640072D01BF0040672D0D146002607F14000F0
:108E7400524641460FF099F97B69D0445B00BB60D0
:108E84007B6908EB43037B610BF002037B607B6926
:108E940098455ED123781BF0020FFB61637818BFFD
:108EA400002106EB030208BF4FEA59011BF0010F32
:108EB400D2B240F09D801BF0040F14BF484600203E
:108EC40094F802B094F803803B616270A070E17082
:108ED4002046BA69F9687B6A9847051EFFF611AF08
:108EE400FB6984F8038023703B6949466370BA695F
:108EF4007B6A84F802B007F140009847B0F100089B
:108F0400C0F2A3803B6ABA69A3EB0A01FB687869E3
:108F1400C91ABB68C91A7B6A98470028C0F29780AF
:108F24004FF0000BA84408EB000507F1300AB345E5
:108F340060D30021BA6908467B6A9847E1E64FF09E
:108F4400000907F1300093E75646D14694E7B1464D
:108F540092E718F8021B3F4A18F8015C54F82530D0
:108F6400934202D33C4A93421CD33B6923B1F86930
:108F74000DF0D8FB00288AD17B68F3B909F12802E7
:108F840007F12800024409F1010302F8101C07F15B
:108F9400500209F1020952FA83F35FFA89F903F8DE
:108FA400105C74E73B692BB1F8690DF0BBFB00283A
:108FB4007FF46DAF1BF0010F09D006F1280207F111
:108FC4002801731C561806F8205CDEB25FE71BF01C
:108FD400040F3FF45CAF09F1280207F1280109F1FD
:108FE400010302EB010909F8105C5FFA83F94EE70B
:108FF400002065E71BF80A3054F8239087F82F30D7
:10900400FB6FFBB133F81B800121BA697B6A07F15E
:109014002F00984700281ADB0544B8F1000F06D149
:1090240048460FF083F800F101081FFA88F841461A
:109034004846BA697B6A9847002808DB05440BF167
:10904400010B74E7D7F87C80DEE7454659E6054610
:1090540057E600BFECB3010020E7010049C401005A
:1090640004000001C8B80100014B1860704700BF3C
:109074008482002030B5002587B0CDE90301044681
:10908400009503A90548059500F018F9DDE90430B9
:109094009842B8BF255407B030BD00BF77670100C0
:1090A4002DE9F047058B04462807904611D4022980
:1090B40005F0070540F0CD8020460DF058FD78B14D
:1090C4000138218B042811D8DFE800F0C3106D8526
:1090D400950001290CBF45F0100545F020052583B6
:1090E40088F31188BFF36F8FBDE8F08701F0070A9A
:1090F400AA4500F0A6800027B9463E46A368002B87
:1091040000F0BD8041F00801218388F31188BFF38A
:109114006F8FA168002900F0BB800D68002900F062
:10912400B780334652462046D1F80480C047002D0C
:1091340076D02B6829461D46F0E701F007035A1F35
:10914400012A1BD8002221F00701062B276889B2C7
:10915400C4E9002209D13B4603E0628B01326283F9
:109164001B68002BF9D141F00201204621830DF048
:10917400FEFC00287BD041F0200177E0042B0AD1CB
:1091840021F0070189B2204621830DF0F0FC10B1D3
:1091940041F020012183218B01F0070AAA4550D018
:1091A4000027B946AAE7236921F0070141F0060127
:1091B400062DD3F8009021832DD1B9F1000F40D0B2
:1091C40041F00801218388F31188BFF36F8F204693
:1091D4003949C84729E021F00701236941F0040116
:1091E40089B2042DD3F804902183E6D000274FF0F0
:1091F400040A3E4682E721F00701236941F0050194
:1092040089B2052DD3F808902183D6D000274FF0DA
:10921400050A3E4672E700274FF0060A3E466DE710
:109224002B4687E7B9F1000FD1D14FF02003EFF3BC
:10923400118883F31288BFF36F8F238B23F0080305
:109244002383258BEA062ED525F01003238305F00E
:1092540007056669218B002EBFF66FAF00232768D0
:10926400C4E9003321F0070141F001012183218B7E
:109274004FF0000901F0070AAA457FF43FAF002F21
:109284009BD041F00801218388F31188BFF36F8FCD
:10929400002FC7D03D6839463346524620460DF06C
:1092A40092FC2F46F4E7AB067FF51AAF25F02003B6
:1092B400238305F00705FFE6F76B01002DE9F04F66
:1092C40081468B4617461C46002595B0387808B968
:1092D400284657E37B1C2528039306D05946C847E4
:1092E4000028C0F24F830135FBE1182200210EA8AB
:1092F4000EF066FF7B78252B7DD0002398469E4692
:109304009C461E46781C014610F8012B2B2A00F0BF
:10931400A18000F29880202A00F09F80232A00F088
:109324009F802BB19DF8403043F040038DF84030CE
:10933400B8F1000F05D09DF8403043F020038DF8BC
:109344004030BEF1000F05D09DF8403043F01003CB
:109354008DF84030BCF1000F05D09DF8403043F04B
:1093640008038DF840302EB19DF8403043F00403DB
:109374008DF840309DF8403003F04400442803D178
:109384006FF386138DF840309DF840302A2A43F05D
:1093940080038DF840307FD19DF841204B1C42F072
:1093A40001028DF841201A782E2A0CBF01210021D8
:1093B4009DF8412061F341028DF8412078D15A781B
:1093C4002A2A6ED000224FF00A0C0133194611F8F4
:1093D400010BA0F13006092E40F295809DF8401053
:1093E4001292C1F3400040EAD2700A4660F341028F
:1093F4008DF840205CE0BA1C03928DF843309DF850
:109404004130DA0740F12E8154F8048BB8F1000F93
:1094140007DA9DF84020C8F1000842F004028DF8F4
:1094240040205E0740F1278154F804ABBAF1000FE5
:1094340080F226819DF841306FF341038DF841306D
:109444004FF0FF3A1CE12D2A0DD0302A7FF469AF8A
:10945400012358E74FF0010C55E74FF0010E52E796
:109464004FF001084FE701264DE703460EFB026269
:10947400303A184610F8016BA6F1300CBCF1090F14
:10948400F3D999428FD09DF840101192D20F62F314
:1094940041018DF8401086E70B4600224FF00A0E7A
:1094A400E7E79DF84120023342F004028DF84120A1
:1094B4001A786C2A47D02BD8682A31D06A2A4BD024
:1094C4004C2A51D01A4612F8013B782B03928DF89E
:1094D40043309DF8412000F2BE806D2B51D8692B9A
:1094E40000F2B980572B67D8412B03D0453B022BA0
:1094F40000F2B18004229DF8423062F302038DF839
:109504004230012373E00CFB02020B46303A5DE764
:10951400742A25D07A2AD5D106219DF841200CE061
:109524005A78682A9DF8412006D1012161F3C602C8
:109534008DF841200233C5E7022161F3C6028DF89C
:1095440041200133BEE75A786C2A9DF8412001D1AD
:109554000421EBE70321F0E705219DF84120ECE726
:1095640007219DF84120E8E7BDF8402022F4F042AD
:1095740022F0020242F4804242F00202ADF840209E
:10958400DFE76E3BD9B201238B4040F282410B42AC
:1095940037D113F0240F51D1D8075CD503219DF89E
:1095A400423061F302038DF8423002F07803A3F1F4
:1095B40040014B424B411AE00120A3F15801C9B2CA
:1095C40000FA01F111F4624F94D140F601063142E0
:1095D4001DD111F4043F3ED09DF8423060F30203E4
:1095E40002F07802402A8DF8423034D000239DF8EE
:1095F4004020C2F340010B4363F341028DF8402045
:10960400FDE602219DF8423061F30203E8E70220FF
:109614009DF8421002F0780260F30201402A8DF8AE
:10962400421002BF9DF8401041F001018DF8401036
:10963400632BDBD1131E18BF0123D8E703219DF848
:10964400423012F0780F61F302038DF8423014BFF8
:1096540001230023CBE79DF8403043F001038DF84C
:109664004030C3E79DF94020002AACBF4FF0FF38DB
:10967400DDF84480D5E698077FF5E2AEDDF848A032
:109684000023CDE911339DF842309DF8411003F0D9
:109694000703012BC1F3C30133D1CB1E042B04D820
:1096A400DFE803F0214646212100236801294FEA1F
:1096B400E372CDE90E321CD19DF93830DA17CDE9C9
:1096C4000E3204349DF8403013F0030650D03A466D
:1096D40059464846039B0DF078FB0028C0F252819E
:1096E4000544039FF2E554F8043BDA17CDE90E3242
:1096F400E8E70229E5D11AB243F3C033CDE90E23DA
:10970400DFE7022B24D1CB1E042B04D8DFE803F0BF
:1097140018101018180001294FF0000254F8043BE7
:1097240014D00229CDE90E32CCD19BB20E93C9E7F5
:10973400073424F00704F4E80223CDE90E23C1E73B
:1097440054F8043B0E9300230F93BBE7DBB2CDE741
:10975400042B08D1073424F00704D4E90023083487
:10976400CDE90E23AEE7032BACD154F8043BDDE77F
:109774009DF843007828B4D862281CD825283FF4E3
:10978400ADAD5828ADD1DDE90E010DF136030093DE
:1097940010AA08AB0DF0D3FABAF1000F074680F215
:1097A4009980002F9DD00DF13603D81B002E00F0B8
:1097B400C0800130BDE06338152892D801A252F868
:1097C40020F000BF9D980000AF980000E7960000CD
:1097D400E7960000E7960000E7960000AF980000C7
:1097E400E7960000E7960000E7960000E796000081
:1097F4003B990000D3980000F9980000E796000018
:10980400E796000021980000E7960000D398000036
:10981400E7960000E7960000D3980000BAF1000F25
:109824000E9F35DB514638460EF087FC07EB000AE5
:10983400002F3FF456AF00269DF8423013F010027B
:10984400059200F0928002305B06119A48BF129B89
:10985400104448BFC018B8F1000F049240F39F8031
:109864009DF84020A8EB0008C2F38003500706933C
:1098740000F19580510640F188803EB1594630464A
:10988400C84700287EDB069B01351E4630227DE05A
:1098940038460EF04BFCC9E70E9B002601208DF8DC
:1098A400203008AF0DF1210AC6E719075ABFC3F3E8
:1098B40000135E012B26DDE90E23002BBFF663AFF8
:1098C400524263EB43032D26CDE90E235BE70026CA
:1098D40059E700269DF840200DF13603DB1B6FF39A
:1098E40086129A458DF840207FF65BAFAAEB0303FE
:1098F400119356E70E9890B30DF1360300930021AF
:1099040008AB10AA0DF01BFABDF84230BAF1000FF3
:1099140003F0EF0343F4F04343F010030746ADF8BC
:109924004230D6DA00283FF4DCAE00260DF13603CF
:10993400181A9A4680E70E9B07293FF6D2AEDFE855
:1099440001F00C04060C08080C0C1D70C9E61D80FF
:10995400C7E6EA17C3E90052C3E61D60C1E62F4F0C
:10996400064607F1050A052066E71A0748BF0130D5
:109974006AE71046079306925946C847DDE906236D
:10998400002804DA15B0BDE8F08F202243461946BA
:10999400002903F1FF33ECDC454498466D1A2EB1DF
:1099A40059463046C8470028ECDB01359DF8423063
:1099B400DA0601D41B0705D559463020C8470028CC
:1099C400E0DB0135059B33B159469DF84300C84798
:1099D4000028D7DB0135049E2E4405E0594630208B
:1099E400C8470028CEDB0135731B002BF6DC534639
:1099F4003A46594648460DF0E8F90028C2DB0544CA
:109A0400A844A8EB0503002B7FF76BAE5946202032
:109A1400C8470028B6DB0135F3E700BFFDC40100E9
:109A2400052370B5144D154E2C780134B4FBF3F3B3
:109A340003EB8303E41A10F000F9114A137823B1FD
:109A440056F82430C01A072813D90E4BD3F8141132
:109A540041B10021C3F81411D3F814312C700CB99E
:109A6400012313702C7810F0E8F846F82400012044
:109A740070BD0020FCE700BFE29B0020A0970020FF
:109A8400E19B00200050004048B1054B054A1B688B
:109A9400B3FBF2F35843044B43F0010318477047F8
:109AA400C883002040420F00F0B90100F0B583B034
:109AB40000AF381D0AF050FA274B984249D109F0FB
:109AC400DDFC041E13DA38790AF04CFA6D4688B0CE
:109AD4006A46224BC2E90534032342F8103F0023AF
:109AE4004FF4C2511E4800F007FFAD462DE040F68A
:109AF40007031C4D7C71AE68FB8074687B6814B9E5
:109B04006FF05704E2E708212846174AA047041ECD
:109B1400DCDB3369002BF3D0012208212846984767
:109B2400041ED3DB01233D79104AAB40C2F804354F
:109B34007879FE7910F076F80D4B45F00045B600C3
:109B4400C0F880509D51002CC0D120460C37BD4632
:109B5400F0BD6FF01204B9E70000AD0B07C50100BA
:109B640048B9010064B50100BD9B000000700140CC
:109B740080A1024038B5049CC4F30725284609F0A7
:109B8400EFFA00210A4BA20B02F0FC02C0F880108D
:109B940099500123E4B2074AA3402846C2F8083585
:109BA40009F08AFC2046BDE838400AF0DBB900BF62
:109BB40080A0024000700140F7B5144683681B6919
:109BC4000BB100229847C4F30726304609F0D0FAB7
:109BD4000546304610F026F80027104B220E92005E
:109BE400C0F880709F50304609F0BAFAA20B0C4BB3
:109BF40002F0FC021344E2B242F000421A60094B44
:109C0400C0F8802005F13202009330463B460194AF
:109C1400520010F010F803B0F0BD00BF80A1024064
:109C240080A00240799B000010F056B87FB570B94F
:109C3400124B1348059302234FF4825104AA049350
:109C44000DF082FB6FF0150007B05DF804FB83682C
:109C540063B90C4B0A48059302234FF4825104AABA
:109C640004930DF071FB6FF00400EDE71B681BB16A
:109C740007B05DF804EB18471846E5E738C501005E
:109C8400E8B8010049C5010030B587B008B101B199
:109C94006AB9134B1348059302234FF4825104AA63
:109CA40004930DF051FB6FF0150007B030BD8468CC
:109CB4000CB1E56865B90C4B0A48059302234FF4CF
:109CC400825104AA04930DF03FFB6FF00400ECE70B
:109CD40041F8040BE36807B0BDE83040184700BF03
:109CE40067C50100E8B8010049C5010030B5134655
:109CF400044687B068B91A4B1A48059302234FF4F7
:109D0400825104AA04930DF01FFB6FF0150007B0F5
:109D140030BD006860B9144B1248059302234FF418
:109D2400825104AA04930DF00FFB6FF00100EEE7DB
:109D340082680AB1956865B90C4B0A4805930223F9
:109D44004FF4825104AA04930DF0FEFA6FF004005C
:109D5400DDE70A46AC46616807B0BDE830406047BD
:109D640093C50100E8B80100A4C5010049C501007C
:109D740008B50422002102480EF022FA002008BD92
:109D84000000072030B50C460E4985B00291D0F88A
:109D9400AC110546CDE9003100F1E0014FF0FF338D
:109DA40020460AF09BFE50B9012384F86430D5F8AC
:109DB400A83123B1204605B0BDE83040184705B0AE
:109DC40030BD00BF4374010038B50C46114605464A
:109DD4000DF037FB034638B9284604490DF031FB32
:109DE40003460020236038BD0120FBE714E6010090
:109DF4002DE9F04F012381460569466885B005F5D4
:109E04005B77D7E8EF2F002A03D1C7E8E13F0029A9
:109E1400F7D140F0B880B368B26A043B2632B3EBA2
:109E2400420F4FEA420126BFB3FBF1F3B3FA83F3C7
:109E340000234FF0010428BFC3F12003013B9C40E1
:109E440005F5E47800F099801022082170689A40A2
:109E540002EB4402043099400932C5F8600206312D
:109E640022F003020A44B16A01FA03FC510001EB37
:109E74004C01C5F86412B16A994000EB4103C5F87E
:109E840058320333134423F00303C5F85432736880
:109E9400C5F85C42C5F850323C4B4046C5E9A9635D
:109EA400316800F01DFA044630BBD9F804A0D9F893
:109EB4001090DAE9073409F5307B012B584608BFC6
:109EC400103C10F028FF0023DAF8240030494FF446
:109ED400806201EB80210093584623460BF012FD6B
:109EE40009F52C702B4910F0D8FEDAF814008368B9
:109EF4005C681CB96FF05704002137E04B46264AD2
:109F0400DAF81810A04704460028F5D1DAF814004E
:109F140083681B69002BEDD00122DAF818109847EA
:109F240004460028E8D11D4B2846C5F8A8311C4B2F
:109F3400C5F8AC311B4B0393D5F810320293D5F816
:109F44000832CDE90083D5F86832B26AD5F86813CF
:109F540000F08EF904460028CED105F1E0000AF0A5
:109F64006BFE0028C5F870030ADB022138460DF0A9
:109F74009DFA204605B0BDE8F08F6FF00B04BBE7F7
:109F84006FF01504B8E76FF07704F2E799740100F5
:109F940090A000207F7401007374010071A0000080
:109FA40051750100E17401002DE9F84306464FF0B4
:109FB40001090569D0F8048005F55B77D7E8EF3F20
:109FC400022B03D1C7E8E29F002AF7D149D12648E2
:109FD40005F140010EF0BAF820B16FF00F042046ED
:109FE400BDE8F883204805F1B0010EF0AFF8002871
:109FF400F3D12846D5F868130DF0DBFA044670BB9C
:10A0040071683669486983681B6933B32246896974
:10A014009847044618BB06F53076494630460BF09F
:10A02400A9FC304605F5E47601F03AFF3046D8F84D
:10A0340000100DF0FBFA044688B90146E8223046C8
:10A044000EF0BEF821464FF4E27228460EF0B8F83E
:10A05400214638460DF02AFAC1E76FF05704022171
:10A06400F7E76FF07704BAE714E6010013B5044686
:10A0740040B100230122CDE90032074BD0E9091297
:10A084000AF0E0FCA36E1B6823B1E06E02B0BDE8E9
:10A094001040184702B010BD14E6010013B5044681
:10A0A4000846216901F55B71D1E8AF1F022910D17F
:10A0B40093B1A0B10121CDE900311346D0E90912D1
:10A0C4000AF0C0FC074B984208BF6FF00B0002B0C7
:10A0D40010BD6FF00F00FAE76FF04C00F7E76FF078
:10A0E4000100F4E72EF8FFFF2DE9F74388461546F3
:10A0F400066906F55B73D3E8AF3F022B5FD11368A3
:10A1040023B96FF0150003B0BDE8F0831B78002B72
:10A11400F7D0D6F86893B9F1000F33D106F5D877A4
:10A124004FF0FF324FF0FF3338460BF07FF93046E3
:10A134002A6801A9FFF748FE019C1CB938460DF0B6
:10A14400B3F9DEE705F10803A3666B6984F864904C
:10A15400E366E46360B138460DF0A6F92146304663
:10A16400236E2A68FFF70EFE0020C8F80040CAE7F5
:10A174002022296804F140000DF0C4FF38460DF098
:10A1840093F9F1E730460F490DF05BF904460028D6
:10A19400B7D005F1080383666B69C063C366002307
:10A1A40080F864302022296840300DF0ABFF22464D
:10A1B4000121304600F03EF80028D5D0A1E76FF029
:10A1C4000F00A0E714E601002DE9F04F05460E4606
:10A1D40090460027D0F8B0A085B0AAF5AE74214609
:10A1E40030460DF0B3FFE0B9114BA4F1400B0293DC
:10A1F400DAF810303246CDE9008329464FF0FF33B8
:10A204005846AAF5CE790AF069FC60B97023012298
:10A2140003FB079383F86420DAF80C300BB158463B
:10A224009847703417B105B0BDE8F08F0127D6E721
:10A23400B37501001FB5144690B18AB1012912D13A
:10A244000A4B00F1E0010293D0F8AC3140320193A3
:10A254004FF0FF33204600930AF040FC04B010BDD9
:10A264006FF01500FAE70020F8E700BFB3750100AE
:10A274002DE9F04387B00E46DDE90E811446DDE991
:10A2840010251F4630B329B3DFF850C000F1E009B0
:10A29400002D08BF65469EB9CDE9034400F5CE7490
:10A2A4002046059610F0E6FA03ABCDE900432A46B2
:10A2B4003B46414648460AF0E5FC07B0BDE8F0835A
:10A2C400002241460E9248462A4607B0BDE8F043B4
:10A2D4000AF002BE6FF01500EFE700BFCDA1000049
:10A2E400F0B50E46044689B000286FD0012302461B
:10A2F400C3630023D0F89810364F403040F80C7CEC
:10A3040042F8301FCDE901334FF0FF330093C36DA2
:10A314000FF06EFD304A06AB92E8030083E80300B9
:10A3240018460AF0AFFA0546D8B904F134000AF029
:10A3340089FA0546A8B93946284805AA0FF02AFD26
:10A34400054670B9059B9A6872B10C33D4F8940031
:10A35400C4F8A0300DF05CF9C4F8D40030B96FF043
:10A364000B05284609B0F0BD0346EFE7D4F8940086
:10A374000DF04EF9C4F8D8000028F0D0D4F88C3091
:10A38400D4F8A010C4F8A8300423C4F8AC30C4F83E
:10A39400C4300223A362124BB4F89420D4F8D470CE
:10A3A400C4F8B810C4F8D010D4F89010236204F1A3
:10A3B400A403A4F8B020C4F8A470C4F8C010A4F88E
:10A3C400C820C4F8BC00A661E362CAE76FF01505B3
:10A3D400C7E700BFCEC5010070B90100D8C50100B0
:10A3E4002CBB01002DE9F047044607464FF0010954
:10A3F400DFF8508014B93846BDE8F08794FAA4F524
:10A40400B5FA85F509FA05F32E0108EB05156FEA8F
:10A41400030A24EA03042B7B002BEBD058F8063004
:10A424001B694BB94644736804222846196807EA35
:10A434000A0700F04DFADDE7284698470028D9D1ED
:10A44400F0E700BF58B9010030B5002289B00F49C8
:10A454000F4810F02AFE002200230024CDE9062331
:10A464000E230C4DCDE903344FF440722846CDE958
:10A474000144094B094900940AF034FF084928466D
:10A4840010F0D4FA204609B030BD00BFA9A40000E2
:10A4940080900020F08B002081A7000090A4002071
:10A4A400E0C5010001480BF0ABB800BF7086002086
:10A4B4002DE9F04780461F480F460DF0FBF806468D
:10A4C400002830D000252846BDE8F087237B73B1EF
:10A4D4002368DB680BB12046984723681B69D3B90E
:10A4E400636804222046196800F0F2F9013610343A
:10A4F4004C45EBD3B8F1000FE5D0002DE2D028464F
:10A50400FFF770FF0546002FF7D000214FF4A47029
:10A514000BF094FDF1E7204698470028E0D00AFAB2
:10A5240006F31D43E2E705464FF0010A024CDFF84B
:10A534000C90DDE7C497002058B9010068B9010008
:10A54400014B53F82000704764BB010008B5034673
:10A5540008462BB1044A136000F06CFC002008BDCF
:10A564006FF01500FBE700BFB482002010B5044C67
:10A57400237813B903480BF043F80123237010BD6B
:10A58400E39B00207086002010B5044606480DF0B9
:10A5940091F83CB1054BD3E8EF1F0139C3E8E21F42
:10A5A400002AF8D110BD00BFBC970020C09700203E
:10A5B40000200146034BD3E8EF0FC3E8E21F002A53
:10A5C400F9D17047BC97002070B5FFF7F1FF05463D
:10A5D400074C084EB44200D370BD63685B792BB15D
:10A5E40023685B6813B12946204698471034F1E785
:10A5F40058B9010068B9010010B5044C044920465B
:10A604000CF003FD034B1C6010BD00BF98850020B7
:10A6140050BB0100B497002008B50023074A4FF44B
:10A6240000411370064A07481360074A1360FFF796
:10A634008DFFBDE80840FFF7DFBF00BFE49B0020AB
:10A64400BC970020B5760100C09700200146002287
:10A65400002301480CF0FABC9885002001480CF056
:10A6640093BD00BF98850020024B014618680CF08A
:10A67400DDBD00BFB497002001480CF013BE00BF3D
:10A684009885002070B5264B1878002847D0FFF72E
:10A69400E5FF054670B1234BD3E8EF1F0139C3E84A
:10A6A400E21F002AF8D1204C204EB4422DD3284674
:10A6B400FFF7DAFF1E4B1F4C1B68002B19DD10F04F
:10A6C400CCFC4FF47A72A0FB020302FB0131C30BF2
:10A6D40043EA4143D4E900209B1A40F2E9324FEAAD
:10A6E400D13161EB0001934271F1000101D3FFF715
:10A6F4006BFFD4E9003213F57A7342F10002C4E926
:10A704000032BDE87040FFF7B7BF63685B7923B1DF
:10A714002368294620461B6898471034C5E770BD56
:10A72400E39B0020C097002058B9010068B90100DC
:10A73400BC9700207890002070B50D4D297861B940
:10A744000120FFF7B5FE0B4C0B4EB44206D3FFF7C6
:10A7540099FF0028FBD101232B7070BD63685B79DE
:10A764001BB1236820469B6898471034EDE700BF6F
:10A77400E49B002058B9010068B9010000212DE9CB
:10A78400F0470846FFF794FE044648B340F2676872
:10A794004FF000090BF06CFC1A4B186030B11A4BE7
:10A7A4001B68092B02DD19480AF02AFF0025184FFF
:10A7B400DFF858A044B12046FFF714FE044618B948
:10A7C4004FF0FF384FF0FF39FFF75CFF064628B91A
:10A7D400B5B942464B4650460AF038FF3546E9E7DC
:10A7E4004FF0FF384FF0FF39D4E72B689B691BB15A
:10A7F40000222846114698471035BD42F5D3E8E7B4
:10A80400044DFAE7B8970020C09700207086002016
:10A8140068B9010058B9010013B518480CF04AFF93
:10A82400174B1B787BB14FF02003EFF3118483F3B4
:10A834001288BFF36F8FFFF725FF84F31188BFF3EE
:10A844006F8F02B010BD0F4B1B68002BF9D050B9AD
:10A85400002200230C48CDE900234FF400420023DA
:10A864000BF04AFEEDE70A28EBD1074810F029FC6B
:10A87400064802B0BDE810400AF0C2BEC0970020EE
:10A88400E49B0020B8970020809000207086002070
:10A8940010B5064B04461B6898472146A06004483F
:10A8A4000CF052FCBDE81040FFF7B6BFB4820020A4
:10A8B40098850020044A054B9B1AB1EBD30F34BF93
:10A8C40052F831000020704748B8010058B901001F
:10A8D400084B10B4C31A44681B1101332371436835
:10A8E4009A7101224368196043685A7110BCFFF7DA
:10A8F4003DBE00BF58B901002DE9F04F8FB0C1F340
:10A904004A2804AF0D469146B8607B600C0DB8F13F
:10A91400000F63D000264FF0040B4FF00A0A07F132
:10A924001403C7F80C80C7E907667E620193CDF86B
:10A9340008B0CDF800A007F11C0332464846F96878
:10A94400FEF7B2F9B0F5006F03461CD36C468AB02B
:10A95400D9F8041004AB26481A46C3E9050140F2AD
:10A96400FF71D9614FF400711984224B42F8103FF2
:10A974004FF4125133462048FFF7BEFFA5462C374B
:10A98400BD46BDE8F08FC0F30A0804F1170018446F
:10A9940020F0070080083B60FFF758FE68F353255A
:10A9A400044690B13B6800F11001C7E9083607F18D
:10A9B4001403F961CDE900A3CDF808B048460F4A65
:10A9C400F96807F11C03FEF76FF968F353252A466B
:10A9D40020467B68B9680CF09FFED0E704F11700AD
:10A9E40020F007008008FFF731FE0446EDE700BFC2
:10A9F400F5C5010004000001F0B80100F176010082
:10AA04002DE9F04F87B00446DDE9105ADDE91269FB
:10AA14000F4693469846A6B310213346524600206B
:10AA2400CDF80090CDF81490FDF76AFF014605F1CA
:10AA340017000844144B04F007040BF0070BE40060
:10AA440020F0070003EA412344EA8B1480081C43E6
:10AA54000391FFF7FBFD44EA0554054640B13EB1BE
:10AA6400334652460399CDF800901030FDF748FF65
:10AA7400434622463946284607B0BDE8F04F0CF05D
:10AA84004BBE3146D3E700BF00FE0F000EB403B542
:10AA940003AB53F8042B0146044801930CF062FE07
:10AAA40002B05DF804EB03B0704700BF917701007A
:10AAB400CA0605D48B064CBF02490349FFF7E6BF1B
:10AAC400704700BF13E6010012E601002DE9F04FC4
:10AAD40089B09B46DDE915769DF848300446049319
:10AAE400DDE913930593049B0D460692002B00F0B9
:10AAF400878006F0080307930CF0F6FD06F0020ABF
:10AB0400024600284BD020468549FFF7BFFF804608
:10AB1400BAF1000F08D016F0440F42D12A4620465D
:10AB24008049FFF7B3FF804406F001035BB17E4B1D
:10AB3400049A204653F822207C4B7D49002A08BF02
:10AB44001A46FFF7A3FF06F00803002B55D0794BF4
:10AB5400049A204653F822207749FFF797FF0546C9
:10AB6400069B2BB11A4620467449FFF78FFF054414
:10AB7400BBF1000F05D05A4620467149FFF786FF06
:10AB840005444544B9F1000F49D1002F4FD1F307D3
:10AB940000F1C08031462046FFF78AFFB4E08046CA
:10ABA400B6E7684B18680028BDD0674B4FF47A7E2F
:10ABB4001B684FF46162B5FBF3F5B5FBF0F300FBE2
:10ABC40013550EFB05F5B3FBF2FAB5FBF0FC3C2183
:10ABD40002FB1A3200FB1C55B2FBF1F30EFB05F528
:10ABE400B5FBF0F501FB132220460092CDE901C527
:10ABF40052465649FFF74AFF95E706F00805AFE7C6
:10AC0400BBF1010F06D1B9F1000F64D1002F7BD045
:10AC140000250CE0B9F1000FF8D04D485CE04D4838
:10AC24004B4622464C490BF04CFD002F68D0DFF810
:10AC34002C91DFF82CA1102F31462046B8464FF056
:10AC4400000B28BF4FF01008FFF732FF5D4545DCCD
:10AC5400059B514620461A78FFF718FF4FF0010B69
:10AC64001BF0070F03D149462046FFF70FFFD845D5
:10AC74003BD9059B5146204613F80B20FFF706FFEE
:10AC84000BF1010BBBF1100FEAD14FF0000B204682
:10AC94003449FFF7FBFE5A46059B20469A5CA2F115
:10ACA40020015F2928BF2E222F49FFF7EFFE0BF169
:10ACB400010BBBF1100F1DD01BF0070F03D1494648
:10ACC4002046FFF7E3FED8455A46E5D849462046D4
:10ACD400FFF7DCFEEBE71F48049DA1E74946204649
:10ACE400FFF7D4FE0BF1010BB0E720461F49FFF735
:10ACF400CDFEC5E7059BB7EB0807434405939AD1FE
:10AD0400049B002B7FF443AF204609B0BDE8F04F0D
:10AD14000CF02FBD2046054A0549FFF7B7FE39E779
:10AD240039C601003DC6010074BB010034C60100F0
:10AD340013D2010088BB010062C6010068C601008D
:10AD44006CC60100CC970020C897002046C60100BD
:10AD5400BF7701009177010069770100DEE501000A
:10AD640071C6010077C6010079C60100DCE5010067
:10AD74002DE9F0410F884B6805460C4690468E68D5
:10AD840086B0C7F382175BB1134A9B1A43F3CF0112
:10AD940000291FDB2078C0F3C200FFF78BFD0346B8
:10ADA400214651F8102B6088C2F34A22002A01EB95
:10ADB400020408BF0021C0F30B10CDE90308CDE95C
:10ADC40001140022314628460097FFF77FFE06B0A3
:10ADD400BDE8F0810023E3E748B8010042F20F73B5
:10ADE40073B58B4228BF0B460568044605216846A7
:10ADF4000D4A0BF0E0FC0646636828460B225B68AC
:10AE04000A490CF0A2FC63683246694628465B682E
:10AE14000CF09BFC63681B2228465B6804490CF019
:10AE240094FC02B070BD00BFAECD010098C6010015
:10AE34007CC6010000210123064A904206D8064A36
:10AE440001B901231360054B1860704701214008C4
:10AE54005B00F2E740420F00C8970020CC97002027
:10AE6400014B002019607047E49700200122024B37
:10AE740002481A700CF07DBCE69B0020B8BB0100B0
:10AE84000148FFF7ABBF00BFB8BB010010B5064BCC
:10AE94000C461868FFF754FB2146BDE810400346F2
:10AEA4000F220248184700BFE4970020B8BB0100F6
:10AEB400F8B50D460446064F4618B44201D128465B
:10AEC400F8BD14F8011BBB6801485B689847F4E7B8
:10AED4001CB501002DE9F84305464FF02003EFF3BC
:10AEE400118683F31288BFF36F8F4FF00C090D4B5B
:10AEF4000D4F1C68DFF834802CB986F31188BFF33A
:10AF04006F8FBDE8F883D4E90123002D18BF1346E1
:10AF14002BB198F8102009FB02F2B85C984724681A
:10AF2400EAE700BF00980020F4970020909B0020DF
:10AF3400012270B5164B1C7C04F01F039A40D043C9
:10AF4400144B610903EB8103D3E8EF1F01EA000509
:10AF5400C3E8E65F002EF7D10A4213D00E4B0F4D23
:10AF64008BB10C236343EA185178E85C0CF0DFF9E9
:10AF74000020FFF7AFFF0C235C4300232A192B5159
:10AF8400C2E9013370BD83F31188BFF36F8FEFE71C
:10AF9400909B00200898002033730100F497002050
:10AFA4002DE9F041324B07461D7C4FF02003EFF3AF
:10AFB400118883F31288BFF36F8F0C246C432D4BDD
:10AFC4002D4E195D1A19002947D007CA06EB040C47
:10AFD4008CE8070000221A5588F31188BFF36F8F9D
:10AFE4000C236B43F05CF218A8B37B1C10D04FF415
:10AFF40000400021D2F808C0204C0023ECFB0041A3
:10B004001F4A2046FDF7A4F80121381A08F062FA15
:10B014000AF05AFF0120FFF75DFF1A4B6A0903EBA0
:10B024008203012205F01F018A40D3E8EF0F104389
:10B03400C3E8E10F0029F8D1134B3BB10C2303FB08
:10B0440005F033185978305C0CF065F9FFF770FFA0
:10B054000AF04EFF0120BDE8F0810146284600F0C9
:10B0640015F80028B8D007C8344484E80700B3E7CB
:10B07400909B0020E8970020F49700203F420F00A7
:10B0840040420F00089800201B7301002DE9F04F87
:10B0940085B00E4603A900F043F84FF40047044678
:10B0A4004FF0000B1B4B039DD3F800A0431E1BB2B3
:10B0B40003EB4303DFF8608005EB830524B9A14665
:10B0C400484605B0BDE8F08FC44659466868002379
:10B0D400E0FB07C1114A6046FDF73AF8C4465946F9
:10B0E4000190A8680023E0FB07C10C4A6046FDF705
:10B0F4002FF8BAF1FF3FA94601D0824505D9731C48
:10B10400DED0019B1844B042DAD9013CA4B20C3D14
:10B11400D4E700BFB88200203F420F0040420F0036
:10B1240008B9024B0B600020704700BFC8BB010088
:10B134000449431E0F3013F8012F8A5C83421A70AE
:10B14400F9D17047E1C60100F0B50746264E8DB02F
:10B1540001AD0C460FCE0FC50FCE0FC596E8070004
:10B1640085E807003846002F39D0002C39D0381F25
:10B174000246214610344B780D781B0443EA0563DC
:10B18400CD7804312B4311F8025C8C4243EA052349
:10B1940042F8043FEFD10421144C8A07036916D105
:10B1A400C3F30742A55C1A0EA25C42EA0562C3F32C
:10B1B4000725655DDBB2E35C42EA054242EA03220D
:10B1C40021F0030330336B4453F82C3C534050F8C4
:10B1D400042F013153402C290361DED101200DB02D
:10B1E400F0BD2046FBE700BF78B90100E1C60100CD
:10B1F4002DE9F04F002703689DB002934368DFF800
:10B20400BCA103938368DDE902460493C3680593F4
:10B214000369DDE904BE0693436907938369DDE9A5
:10B22400062C0893C36998460993089B0093CD594B
:10B234000CAB2DBA5AF8049BDD514FEAF223A94412
:10B2440083EAB213009D83EA72634B4425EA020544
:10B2540002EA0C0985EA09052B44434486EA0B05F6
:10B264004FEA743888EAB408254006EA0B0985EAEF
:10B27400090588EAB4580437A844402F03EB0E05A7
:10B284004344DE46DDF8008040F088804FF0100A29
:10B294004B490A9151460AF1010A0DF1700E0AF068
:10B2A4000F070EEB870757F8407C01F00F094FEAB0
:10B2B400B748019788EAF71801F10E0707F00F075E
:10B2C4000EEB870757F8407C09314FEAF74E8EEAB8
:10B2D400774ECDF82CE001F00F010DF1700E0EEB5E
:10B2E40081010EEB890959F840EC51F8401CBAF180
:10B2F400400F7144DDF804E088EADE08DDF82CE054
:10B3040041448EEA972E714405EA02084FEAF52E6D
:10B314002CEA050787EA08078EEAB51EDDF82880BF
:10B324008EEA756E774458F804EF49F8401C774468
:10B334000F4400994FEA733E394484EA0607CDF876
:10B3440028808EEAB30E07EA030704EA06088EEAA9
:10B35400B35E87EA080777440F4401EB0B0ECDF880
:10B3640000C0B34622D102993944016003991944BB
:10B37400049B416023448360059B3344C360069B64
:10B3840073440361079B2B444361089B134483610B
:10B39400099B6344C3611DB0BDE8F08FB346CDF88B
:10B3A40000C0264694461C462A4640E79446264654
:10B3B4002A461C4675463B466CE700BFC8BB0100E5
:10B3C40004BC010010B50446C8B1702200210CF081
:10B3D40010FA0B4B0B4A0C49C4E900230B4B0C48E5
:10B3E400C4E902130B4BC4E9040301200A4BA36113
:10B3F40003F17453A3F52303A3F69243E36110BD51
:10B4040085AE67BB67E6096A72F36E3C3AF54FA5F1
:10B414007F520E518C68059BABD9831F01491022C2
:10B424000A60704710ED00E072B6404080F3118866
:10B43400BFF36F8F01B5FEF7F3FA002802D0BFF314
:10B444004F8F30BFBDE8014062B6BFF36F8F7047C6
:10B4540072B6494081F3118801B5FEF7E1FA00287C
:10B4640002D0BFF34F8F20BFBDE8014080F31188A5
:10B4740062B670472DE9F04781460C4600AF0029BB
:10B484004CD0D1E900126E468AB0A3686D464FF0E5
:10B49400050AA8462548C5E90723C5E9050148F872
:10B4A40010AF002342464FF421512148FFF724FAFC
:10B4B400D4E90312B5466369AD461E48C5E90723BE
:10B4C400C5E90501C5F810A0002342464FF42151F7
:10B4D4001748FFF711FAB54688B0E3696D464FF097
:10B4E400030AA846144AC5E9052348F810AF002307
:10B4F40042464FF4C2510E48FFF7FEF9B546A36920
:10B50400AD460E4AC5F810A0C5E9052300234246FE
:10B514004FF4C2510648FFF7EFF9B54621464846B5
:10B5240009F0F0FCBD46BDE8F08700BFE1C70100AB
:10B5340030B9010010C801003FC801004EC8010025
:10B5440040B2002807DB01234109034A00F01F0031
:10B55400834042F82130704700E100E040B2002807
:10B564000CDB01220649430900F01F00824020330E
:10B5740041F82320BFF34F8FBFF36F8F704700BF95
:10B5840000E100E0054B420953F82220012300F0BA
:10B594001F0003FA00F01040704700BF00E100E014
:10B5A40040B2002801F10101ACBF00F16040064B3C
:10B5B4004FEA4111C9B2ABBF00F5614000F00F0082
:10B5C40080F800131954704714ED00E030BFFFF702
:10B5D400FDBF00BF0B4A08B50B4B22F07F029A60F7
:10B5E400BFF34F8FBFF36F8FD3F8882022F470021C
:10B5F400C3F8882009F042FD0AF0B2FD00F0CAFB4E
:10B6040009F07CFD0080000000ED00E0094A0A49D1
:10B61400936809689867D96708494B6843F0805371
:10B624004B60002383F31188BFF36F8F9368D86F47
:10B63400704700BF909B0020DCC1010000ED00E0DA
:10B6440015498A6882F881E04FF030001044EFF326
:10B65400098C80E8F01F202080F31288BFF36F8FDD
:10B664000E4F4FF000668A698A603E6092F981E06D
:10B67400906F0023936780F3118802F1300090E803
:10B68400F01F8CF3098802F1000004B50CF0FEFCF5
:10B69400BDE8044070470000909B002004ED00E0EA
:10B6A4001EF0040F0CBFEFF30880EFF309808169EB
:10B6B40011F8021C0229FFD001B50CF0D8FC01BD21
:10B6C40042F8203C009B0D4942F81C3C019B21F0B0
:10B6D400010142F8183C029B42F8081C42F8143C51
:10B6E4004FF0807342F8043C002383674FF43C43DB
:10B6F400203A0265C0F88030704700BFD56701006A
:10B70400084B9860836E83F30B88104681F3098895
:10B71400002163B681F31188BFF36F8F00220023E9
:10B724000BF056F8909B002001B572B60B4A506995
:10B7340000281EBF002151610FF07FF962B6EFF3BC
:10B744000580A0F110004FEAC0000549014409C971
:10B754009847BDE80140034908470000909B00203A
:10B764007CB501006DB70000044B99689869884264
:10B7740003D003494FF080520A607047909B002029
:10B7840004ED00E02DE9F04186B006460D4600AF19
:10B794000224444B4FF482517B6143483C6107F1DE
:10B7A40010020CF077FC414B9B6ADB0678D5404BCA
:10B7B4003D484FF48251C7E9044307F110020CF0ED
:10B7C40069FC1120394B9B6A1C070BD5394B364851
:10B7D4007B6102234FF482513B6107F110020CF0AC
:10B7E40059FC1220314CA36A990723D5E846324B01
:10B7F40007F110027B6102234FF482513B612A4816
:10B804000CF048FC636BA26A120612D588B06A4633
:10B814002A492548C2E9051303234FF4C25142F8CB
:10B82400103F0CF037FCC5461EB1A36A23F0800319
:10B83400A36213201D4B9B6ADE070BD5204B1A48CD
:10B844007B6102234FF482513B6107F110020CF03B
:10B8540021FC1420154B9B6A9C060BD5194B1248EE
:10B864007B6102234FF482513B6107F110020CF01B
:10B8740011FC15200D4B18379A6AD10658BF9A6AE5
:10B884009A6A920642BF5A6A22F400525A629A6A2B
:10B8940042F0FF029A6200232B70BD46BDE8F0819E
:10B8A40010208FE77CC8010030B9010000ED00E0F2
:10B8B40092C80100C5C80100D8C80100F0C8010041
:10B8C40006C9010025C901002DE9F04186B00646EC
:10B8D4000D4600AF0224474B4FF482517B6146482A
:10B8E4003C6107F110020CF0D5FB444B9B6AD90470
:10B8F4006DD5434B40484FF48251C7E9044307F1E7
:10B9040010020CF0C7FB17203C4B9B6A1A050BD5A1
:10B914003C4B39487B6102234FF482513B6107F170
:10B9240010020CF0B7FB1820344CA36A9B0523D5F6
:10B93400E846354B30487B61022307F110023B6136
:10B944004FF482510CF0A6FBA36BA26A100412D52B
:10B9540088B06A462D492848C2E9051303234FF4E9
:10B96400C25142F8103F0CF095FBC5461EB1A36AC4
:10B9740023F40043A3621920204B9B6A59050BD57D
:10B98400234B1D487B6102234FF482513B6107F135
:10B9940010020CF07FFB1A20184B9A6AD20518D5B6
:10B9A4001C4B15487B6102234FF482513B6107F124
:10B9B40010020CF06FFB1B20104A1837936A43F4F3
:10B9C4007F43936200232B70BD46BDE8F0811620AF
:10B9D4009AE79B6A9B04EFD50F4B07487B610223D0
:10B9E4004FF482513B6107F110020CF053FB1C2011
:10B9F400E2E700BF54C9010030B9010000ED00E0E6
:10BA04006AC90100C5C801007BC9010094C90100CD
:10BA1400A9C90100C4C9010025C9010010B586B037
:10BA240002243E4B4FF482513D4804AA05930494EA
:10BA34000CF030FB3B4B9B6A99016CD53A4B384870
:10BA44004FF4825104AACDE904430CF023FB1E20D9
:10BA5400344B9B6ADA010AD5344B314805930223EF
:10BA64004FF4825104AA04930CF014FB1F202D4BB5
:10BA74009B6ADB020AD502242D4B29484FF48251DC
:10BA840004AA059304940CF005FB2046254B9B6AFD
:10BA94001C030AD5274B2248059302234FF48251F5
:10BAA40004AA04930CF0F6FA21201E4B9B6A590356
:10BAB4000AD5214B1A48059302234FF4825104AA54
:10BAC40004930CF0E7FA2220164B9B6A9A030AD5DA
:10BAD4001A4B1348059302234FF4825104AA04938A
:10BAE4000CF0D8FA23200F4B9B6ADB030AD5144BC6
:10BAF4000B48059302234FF4825104AA04930CF0DB
:10BB0400C9FA2420074A936A6FEA03436FEA13438E
:10BB1400936206B010BD1D209AE700BFDCC9010086
:10BB240030B9010000ED00E0F4C9010007CA0100CA
:10BB340021CA01004BCA010069CA01008ECA010072
:10BB4400A8CA01002DE9F0478AB07A4B0546D3F81C
:10BB540004908A461446002600AFC9F3080886F309
:10BB64001188BFF36F8F02F07F43B3F17F4F25D16C
:10BB7400D30723D4500603D411070FD401260FE0B2
:10BB84006D4B4FF48251FB6102236C48BB6107F19A
:10BB940018020CF07FFA14F0040400D05546002675
:10BBA4000023FB71A8F10303092B00F2A280DFE854
:10BBB40003F007959891A0A0A0A0A09B3546EFE7BD
:10BBC400E9464FF002085E4B07F11802FB614FF49F
:10BBD40082515A48C7F818800CF05CFA0023554C7F
:10BBE400FB71E36A9A070BD5564BC7E906834FF4FA
:10BBF4008251524807F118020CF04CFA002438E044
:10BC0400E36A002B01DA504BEFE7E36A5B00F5D5FA
:10BC14004E4B07F11802C7E906834FF48251474897
:10BC24000CF038FA6369AA6943F480736361BFF363
:10BC34004F8FBFF36F8F636932F8022C23F4807344
:10BC44006361BFF34F8FBFF36F8F4DF602739A4258
:10BC54002BD188B02B686A463D493848C2E90513A0
:10BC640003234FF4C25142F8103F0CF013FACD46AF
:10BC74002C68FB79ABB92022294607F108000CF0A7
:10BC840094FA7B6A002E50D0C3F3080222B96FEAFB
:10BC940053236FEA43237B62204607F10801FFF731
:10BCA400E9FB2837BD46BDE8F087A36ADBB223B1C0
:10BCB4000120F91DFFF766FD0EE0A36A13F47F4F20
:10BCC40004D00120F91DFFF7FFFD05E0A36AB3F5D9
:10BCD400803F93D3FFF7A2FE0446CAE70020F91D74
:10BCE400E8E70020F91DEEE71A4BFB610223BB6174
:10BCF4007DE7194A6C4619F4F87F8AB0174B18BFD0
:10BD040013466A4616490D48C2E90513A8F1100303
:10BD1400D3614FF400731384124B4FF4115142F862
:10BD2400103F0CF0B7F9A54668E723F4FF7323F03E
:10BD34000103B0E700ED00E001CB010030B90100E0
:10BD440024CB01003BCB01005CCB01006ACB01009A
:10BD540089CB0100A5CB0100E8CA0100D3CA0100C8
:10BD6400C9CB010004000001044B5A6942F01002DF
:10BD74005A615A6942F480625A61704700ED00E0EA
:10BD8400EFF30880EFF3098101B57246FFF7DAFE9D
:10BD940001BD00BF002320210348C2180133452BF5
:10BDA40082F80013F9D1704700E100E0002080F32D
:10BDB4001488BFF36F8F002080F30A8880F30B8808
:10BDC400FDF732FF00200E490860BFF34F8F0D4886
:10BDD40080F3088800F03EF8202080F311880A4898
:10BDE4004FF40061401880F30988EFF314800221B6
:10BDF400084380F31488BFF36F8FFFF7EBFB000059
:10BE040094ED00E028C70020E8B50020BFF34F8F71
:10BE14000549064BCA6802F4E0621343CB60BFF3E2
:10BE24004F8F00BFFDE700BF00ED00E00400FA05FE
:10BE3400002318460649D1F89020C2F30722934202
:10BE440000DB7047C1F89830C1F8A0000133F6E771
:10BE540000ED00E010B572B6002484F31388FFF7F8
:10BE6400E7FF23464FF0FF300C4A03F12001013372
:10BE7400102B42F82100F8D100234FF0FF30074A7D
:10BE840003F160010133102B42F82100F8D162B6AE
:10BE9400BFF34F8FBFF36F8F10BD00BF00E100E011
:10BEA400084B9B6883420BD1EFF3058343B1064BE8
:10BEB4005A6842F080525A605A6A22F400425A6226
:10BEC4000AF0DCB8909B002000ED00E01FB5094C9F
:10BED400094A23460121094800F02AF90023039363
:10BEE400074B0121E41A01A80193029400F02AF9F6
:10BEF40004B010BD0000072000800020C8BC010071
:10BF0400F087002010B50C7A0B6804F01F0223F0B0
:10BF14001F031A43CB68640923F01F03054943EA4E
:10BF2400440343F00103C1F89800C1F89C20C1F810
:10BF3400A03010BD00ED00E080B500AF88B06A46C7
:10BF4400074BC2E90530032342F8103F00234FF4A6
:10BF5400C2510448FEF7D0FC6FF01500BD4680BD09
:10BF6400E0CB010010B901002DE9F04F144606465C
:10BF74004FF0000987B05F4D00AF79607B68994549
:10BF840035DAD6F80480B8F1000F54D0B8F11F0F99
:10BF94001BD918F01F0F18D1D6F800B01BF01F0FD3
:10BFA40013D158460CF07BF8824608EB0B0001389D
:10BFB4000CF075F882451FD06FF0150A6C4688B0F6
:10BFC4006A464D49C2E9051A05E06C4688B06A46DE
:10BFD4004A4BC2E90539032342F8103F00234FF4CA
:10BFE400C2514748FEF788FCA5466FF01504204669
:10BFF4001C37BD46BDE8F08F1AF1160FDED054454C
:10C00400DCDDC5F898A0D5F89C00C5F898A0D5F853
:10C01400A02020F01F0042F01F08D6E9002111449F
:10C02400904201F1FF3B1ED1D84508D131465FFA59
:10C034008AF00CF03DF809F101090C369EE7C5F8C9
:10C0440098A0D5F89C3021F01F0103F01F030B4387
:10C054003146C5F89C30E0B20CF02AF810F1160F06
:10C06400C3D0441CE7E7013AD845E0B222F01F02EE
:10C07400C5F898A008D1D5F8A030314603F01F03C5
:10C084001343C5F8A030E7E7D5F8A01001F01F016D
:10C094000A43C5F8A02031460CF00AF810F1160F37
:10C0A400A3D0C5F898A0D5F89C203B7C08F1FF38B4
:10C0B40062F304033B74D5F8A0303A7C5B0863F365
:10C0C40047123A74D6E900321344BB6023F01F03CD
:10C0D400441C4344A3EB0B03E0B223F01F030728E3
:10C0E4007B6102D9FFF728FFB8E707F10801FFF7E2
:10C0F40009FFB6E700ED00E029CC010006CC010001
:10C1040010B901000522044BC3F89420BFF34F8FEC
:10C11400BFF36F8F704700BF00ED00E0BFF35F8F88
:10C124000022024BC3F89420704700BF00ED00E0EA
:10C1340010B5034C2278FFF717FF207010BD00BF25
:10C14400E79B00202DE9F74F294D8A4606464FF01C
:10C154000008AB46274FD0451BDAD6F80490B9F156
:10C16400000F3FD03168084601910BF098FF019908
:10C17400044609EB010001380BF091FF84424FF0B3
:10C1840014021D4B08D002FB08F36FF015024BF8A4
:10C19400032003B0BDE8F08F14F1160F2C60F8D023
:10C1A4001978A142F5DD02FB08B0C7F89840C7F83A
:10C1B4009840D7F89C4000F10801007B64F3040028
:10C1C4000871D7F8A0000C79400860F347140C718B
:10C1D400D7F89C1021F01F016960D7F8A01021F056
:10C1E4001F01296108F1010814350C36B3E700BFBB
:10C1F4000C98002000ED00E0E79B002038B50E4DC0
:10C204002C68082C15D80020FFF788FF0B4B0C4A2C
:10C21400C3F8C020844205D10A4B00201C70FFF7EC
:10C2240071FF38BD696801EB0011FFF76BFE013047
:10C23400F0E74FF0FF30F4E7D4BC010000ED00E07C
:10C24400AAFF4400E79B0020014B1860704700BF21
:10C25400BC8200200020024BC3F81406704700BFC4
:10C264000050004008B504480EF01AFB00280CBF2B
:10C274006FF01200002008BD04B501000E4B4029E8
:10C2840028BF402170B51D460C4C4618B04203F13E
:10C29400020304D1002305F81130074870BD027869
:10C2A4001209A25C03F8022C10F8012B02F00F0211
:10C2B400A25C03F8012CE9E7069C0020D3CC010022
:10C2C40030B503788BB0044607AD032B21D8DFE8E3
:10C2D40003F0021A1C1E124928460BF009FF0595AB
:10C2E40063781E210493A3780E4A0393E3780E48DF
:10C2F40002932379019363790093A3790AF05BFA9B
:10C3040009480BB030BD0949E6E70949E4E70949A2
:10C31400E2E70A212846084A0AF04DFADFE700BF9F
:10C324008ECC0100B0CC0100E89B002095CC01002C
:10C334009CCC0100A6CC010022DC010030B5002415
:10C34400094D0A4B85B02846029303940EF0E3FC92
:10C3540002AB284600934FF4A3620A23044909F070
:10C36400D1FA204605B030BDB8900020E4CC0100DD
:10C3740090A700200146014809F03ABBB89000207C
:10C38400034630B41A780846012A13D0022A26D06C
:10C3940072B9154A02F1100452F8045BA24241F842
:10C3A400045BF9D112780A705B8843731B0A8373A8
:10C3B40030BC70470C4A02F1100452F8045BA242EC
:10C3C40041F8045BF9D112780A705B68C3F3072261
:10C3D40043731B0CC3731B0A82730374E8E71122B3
:10C3E40030BC19460BF0E1BEEDCC0100012838B594
:10C3F40005460CBF064807480DF0A9F9044620B1CC
:10C4040001210C300DF0FFF92576204638BD00BF20
:10C414003C870020B88600200246002070B50B46F9
:10C424000A49D1E8EF4FC1E8E50F002DF9D124B94D
:10C43400BDE870400120FFF7D9BF01212082217699
:10C4440004F10C000DF0DFF9204670BD38810020A6
:10C4540070B504460F2C0D461046194605D80D2C10
:10C464000DD9BDE87040FFF7D7BF132C07D10C4896
:10C474000DF06DF9044638B90024204670BD02461B
:10C484000B4645B10748F3E701210C300DF0BBF929
:10C4940001232376F1E70120BDE87040FFF7A6BF32
:10C4A400C08700201087002070B58EB06C46064609
:10C4B4000A4D0D2E0FCD0FC40FCD0FC40FCD0FC4D9
:10C4C40095E8030084E803009DBF0EAB03EB8606EA
:10C4D40056F8380C02480EB070BD00BFA4B9010074
:10C4E40006CD010038B5C368B3F801401B7863B9C1
:10C4F400204602F05BFE054640B9084B1A8822B973
:10C504006FEA04506FEA1050188038BD012102F020
:10C5140055FE2846BDE838400CF0E3B8CC9B00201B
:10C5240010B5084C0146052294F86F0003F050F84A
:10C5340038B994F86F000422BDE81040024903F0B2
:10C5440047B810BD0080002074CC010080B5C368DA
:10C5540000AF88B06A461B7806490748C2E905134C
:10C5640003234FF4C45142F8103F0BF0B8FEBD460C
:10C5740080BD00BF0ECD010098B801007FB5064B09
:10C584004FF4825105930223044804AA04930BF048
:10C59400A6FE07B05DF804FB36CD010098B8010093
:10C5A40098B5014600AF0D480DF0D8F80C490D4878
:10C5B4000EF0A0FB00280EDA6C4688B06A460A4BDF
:10C5C4004FF4C251C2E905300323084842F8103F32
:10C5D4000BF085FEA546BD4698BD00BF3C810020FA
:10C5E400FC820020E891002050CD010098B80100A1
:10C5F4000B46B0B50D8A00AF04462946D868FFF74C
:10C604003DFE8AB06A46094BC2E90750C2E90534C7
:10C6140040F202439384064B4FF43251054842F8EA
:10C62400103F0BF05CFEBD46B0BD00BF6DCD0100F8
:10C634000500000198B8010080B5012100AF0C305D
:10C644000DF015F988B06A46037806490648C2E930
:10C65400051303234FF4C25142F8103F0BF03FFE81
:10C66400BD4680BD8FCD010098B80100B0B5C36848
:10C6740000AF1C88204602F099FD80B96D4688B051
:10C684006A46084B4FF4C251C2E9053403230648F5
:10C6940042F8103F0BF023FEAD46BD46B0BD0CF092
:10C6A40020F8FAE7B1CD010098B80100B0B5C3682D
:10C6B40000AFB3F80140204602F078FD80B96D4622
:10C6C40088B06A46084B4FF4C251C2E905340323CB
:10C6D400064842F8103F0BF002FEAD46BD46B0BD21
:10C6E4000BF0FFFFFAE700BFB1CD010098B80100DD
:10C6F4002DE9F041C56800AF2E78AEB9B5F80180D8
:10C70400404602F053FD044688B96C4688B06A4638
:10C714000B4B4FF4C251C2E905380323094842F8D0
:10C72400103F0BF0DCFDA546BD46BDE8F081EB787B
:10C734003146437202F042FD20460BF0D2FFF3E78C
:10C74400D5CD010098B80100B0B5044600AF02EBA6
:10C75400C303934203D12046FFF74AFF18E0104673
:10C7640010F8085BA54219D10B8A5078984211D968
:10C774006D4688B06A460A49D461C2E905130423A8
:10C784004FF40151074842F8103F0BF0A8FDAD46A5
:10C79400BD46B0BD084653689847F9E70246D8E756
:10C7A400FBCD010098B80100F8B5554800AF0CF076
:10C7B400EBFF044600286AD0037E012B69D0032BCB
:10C7C40040F09980038A032B0CD84FF4FB734D4A35
:10C7D4004D494E480AF010FB404080F311884FF059
:10C7E400030002DF042104F10C000DF040F8FF22E5
:10C7F40043880688218AC6F30B008B4260836276E5
:10C8040010D06D4688B06A464148D3610423C2E91A
:10C8140005014FF4015142F8103F3E480BF05FFD13
:10C82400AD4664E002F0C2FC054660B96D4688B0CE
:10C83400638B6A463849C2E9051303234FF4C25196
:10C8440042F8103FE9E702F0B7FD21466076320B6B
:10C85400284602F055FB28460BF043FF2F4BD3F834
:10C864003C31A3B12E492F480EF044FA00280EDAC9
:10C874006C4688B06A462C4B4FF4C251C2E905306D
:10C884000323244842F8103F0BF029FDA546BD467A
:10C89400F8BD038A012B0CD840F64723194A1A49DC
:10C8A4001A480AF0A9FA404080F311884FF00300B7
:10C8B40002DF022104F10C000CF0D9FF05460078D8
:10C8C4000BF0EFFC83070CD440F64B230D4A1749B9
:10C8D4000E480AF091FA404080F311884FF00300AB
:10C8E40002DF04232146124A2878FFF72DFF204651
:10C8F40005F03EF9B2E76D4688B06A460D499AE7FD
:10C904003C8100201DCE010051CE01006ACE010001
:10C9140087CE010098B80100ABCE01000080002052
:10C92400FC820020E891002050CD0100CDCE010012
:10C9340094BD0100FBCE010010B5012104460C306A
:10C944000CF095FF2146BDE810400723014A00780A
:10C95400FFF7FABEB4BD0100F8B5C56800AFB5F87D
:10C964000160304602F022FC044680B96C4688B06F
:10C974006A460F4B4FF4C251C2E9053603230D48F2
:10C9840042F8103F0BF0ABFCA546BD46F8BD2B7832
:10C9940023B90822E91CAD300BF007FC4FF4805199
:10C9A400201D0BF091FC20460BF09BFEEDE700BF31
:10C9B400B1CD010098B801002DE9F843064600AF57
:10C9C400907A8846144605F011F8414D854218D0F6
:10C9D400A47AE846204605F009F88AB06A463D4B39
:10C9E400C2E90740C2E90536062355624FF44251B5
:10C9F400394842F8103F0BF072FCC546BD46BDE80D
:10CA0400F883204604F0FAFF4FF00C09334D09FB7C
:10CA140000504388B34216D0204604F0EFFF09FBD0
:10CA240000506C4688B06A464388D36104232C497D
:10CA34002948C2E905164FF4025142F8103F0BF0A1
:10CA44004EFCA546DAE7274ED6F8380120B105F0AA
:10CA54008FF80023C6F83831204604F0CFFF0C26A7
:10CA640006FB00504368ABB1B8F1000F12D1204669
:10CA740004F0C4FF012106FB00504268D2E9000320
:10CA8400127A03F01F06B1405B09DAB100EB8300B0
:10CA94000BF01AFC204604F0B1FF0C2606FB0050F4
:10CAA4008368002BAAD0204604F0A8FF704305F841
:10CAB4000080204604F0A2FF06FB0055A86808F099
:10CAC4009FFD9BE7C94300EB83000BF00BFCE1E700
:10CAD400948700200FCF010098B80100209800200F
:10CAE40044CF01000080002038B5042104460C30F6
:10CAF4000CF0BDFE4578017822464088FFF75CFFC4
:10CB040025B1BDE83840024808F07ABD38BD00BF01
:10CB14002081002038B5032104460C300CF0A7FE18
:10CB2400E368057822461978B0F80100FFF744FF5E
:10CB340025B1BDE83840024808F062BD38BD00BFE9
:10CB4400208100202DE9F04F87B00123D0F80C801C
:10CB5400018A98F8004000AF03EB84038B4240F253
:10CB64008C806D468AB06A46C2E907310523454880
:10CB74004FF42151C2E90504434842F8103F0BF039
:10CB8400AEFBAD461C37BD46BDE8F08F6C4688B0A1
:10CB94006A463E4B4FF4C251C2E9053B03233A486F
:10CBA40042F8103F0BF09BFBA546013598F8003086
:10CBB4009D42E7DA08EB8503B3F801B0B3F80360EC
:10CBC400584602F0F3FA04460028DFD000F1280B9F
:10CBD40046B34FF02003EFF3118283F31288BFF3BF
:10CBE4006F8FE3696BB1013BE36182F31188BFF39B
:10CBF4006F8F204602F04AF9013E08F001FDB6B2FB
:10CC0400E6E7636993B982F31188BFF36F8F022358
:10CC14004FF482511C4807F11002C7F814A03B617D
:10CC24000BF05DFB20460BF05CFDBEE7A1691868C4
:10CC34008B42606108BFA06182F31188BFF36F8FDC
:10CC44004FF02002EFF3118182F31288BFF36F8F4C
:10CC5400DA68E261C3F80C90C3F80090626A4AB9DA
:10CC6400C4E9083381F31188BFF36F8F584608F085
:10CC740043FEBEE713606362F4E70025DFF810A00B
:10CC8400A94693E777CF010098B80100A1CF01002E
:10CC9400BDCF0100F0B583B0C56800AFB5F8016041
:10CCA400304602F083FA044688B96C4688B06A4676
:10CCB4002B4B4FF4C251C2E905360323294842F8ED
:10CCC400103F0BF00CFBA5460C37BD46F0BD2B788E
:10CCD400061D1A2B17D1C378012B28D14FF480617C
:10CCE40030460BF0F1FA42050DD4D4F8A0303946A1
:10CCF4003B60D4F8A83020467B6002F03BFF20461E
:10CD04000BF0EFFCE0E72B788BB9B5F80330A4F80F
:10CD14009E30B5F80530A4F8A430B5F80730A4F86F
:10CD2400A6306FF4807130460BF0DCFA14E0D6E8DC
:10CD3400AF3FDB05F5D52B78202BF2D194F8AC303E
:10CD4400002BEED0013B84F8AC304FF420320023AA
:10CD540004F1580008F076FE204602F04FFBCEE7BF
:10CD6400B1CD010098B8010010B5C1E900239DF8C8
:10CD740008300C460B7204F041FE0C22024B02FBFD
:10CD840000335C6010BD00BF209800202DE9F047FF
:10CD94004FF0FF324FF0FF33064617480F460CF0B2
:10CDA400D6FC4FF00008044600F10C0A012150465D
:10CDB4000CF029FD204684F8188004F01FFE4FF083
:10CDC4000C090E4D09FB00504680204604F016FE67
:10CDD40009FB0050C0F80880204604F00FFE09FB50
:10CDE400005503215046C5F804800CF010FD068060
:10CDF40087702046BDE8F0879487002020980020A3
:10CE04002DE9F04387B0064615460C4600AF21B91C
:10CE1400FFF7BCFF044600285FD0012200213846FA
:10CE24000DF0B8FE204604F0E9FD0C23DFF8B090C5
:10CE340003FB0090876020460CF0BFFC01462948A4
:10CE44000CF0B9FC4FF4A0220023384608F0FEFB96
:10CE5400804688B14FF4A573234A2449244809F035
:10CE6400CBFF42463146234809F0C6FF404080F3D9
:10CE740011884FF0030002DF204604F0BFFD0C23AD
:10CE8400584319F80080B8F1000F1ED06D4688B0E1
:10CE94006A46194BC2F81C80C2E9053604234FF4D4
:10CEA4000251164842F8103F0BF019FA2046AD46DD
:10CEB40004F05EFEB8F1090F14BF6FF004006FF0C8
:10CEC4006E001C37BD46BDE8F08315B12C60002010
:10CED400F7E7204604F04CFEF9E76FF06800F0E74E
:10CEE40020980020448100201DCE0100D4CF0100F1
:10CEF4006ACE0100DDCF010009D0010098B801001D
:10CF040070B588B006460D4642F22F00002101AAF2
:10CF1400FFF776FF044660B10B4B4FF48251079341
:10CF240002230A4806AA06930BF0D9F9204608B052
:10CF340070BD0198C368B3F801203280B3F80330A0
:10CF44002B8004F015FEF1E725D0010098B801000C
:10CF5400F7B5144B054693F99B300C46002B1DDAAC
:10CF640014B9204603B0F0BD082C4FF0000142F282
:10CF7400180001AA264628BF0826FFF741FF00280B
:10CF8400F0D1019F3246F968284601310BF00DF9C2
:10CF9400384604F0EDFD3544A41BE1E76FF085004D
:10CFA400E0E700BF008000202DE9F0478CB00026A8
:10CFB400AC4BB0F80180198848F47042914208BF24
:10CFC4001E800478054608BF012602AFA4B33C2C9A
:10CFD40022D101F045FB6FF0800110300BF082F993
:10CFE4000020FFF79DFA054670B99F4B4FF482511C
:10CFF4007B6202239D483B6207F120020BF06FF92C
:10D004002837BD46BDE8F0874472002102F0D6F807
:10D0140028460BF066FBF3E76D4688B002AA944BF2
:10D024004FF4C451C2E905340323904842F8103F39
:10D034000BF055F9AD46E3E7C37800F10409012B81
:10D0440008BF8C4B484608BF93F86F400BF025F996
:10D05400494648B307F110000BF015F9062205F113
:10D06400110107F109000BF0A0F801233B72EB78E2
:10D07400012B29D04846FFF723F96C4688B002AA51
:10D084007D4B4FF4E251C2E905304FF400739383B2
:10D094007A4B764842F8103F0BF021F91F21A54640
:10D0A40040460BF027F9ABE720460BF0D2F90722F4
:10D0B400014607F110000BF078F80722494607F102
:10D0C40008000BF072F8D2E707F11000FFF728FA16
:10D0D400EB780446012B0AD101F0C2FA82466FF0C4
:10D0E400800110300BF0FEF850460BF0B1FA002C22
:10D0F400C0D02046B5F80130072220F8883B07F15C
:10D1040010010BF052F80022B5F81730A4F89E3045
:10D11400B5F81930A4F8A430B5F81B30A4F8A6303B
:10D12400EB786272012BE37018D1072207F1080132
:10D1340004F18F000BF039F801F092FA217A4D4D89
:10D14400C1EBC1012944072204F196000BF02DF82C
:10D15400D5F8E4305D0601D501F04AFC07212046EC
:10D1640002F02CF81EB10121204602F027F82046D7
:10D174000BF0EDFAA37A072B6ED1231DD3E8AF3F52
:10D1840013F4805F3B4D29D1E3781BB195F8D83077
:10D19400180723D5022142F21600FFF7F7FD0646D1
:10D1A40000285BD002210C300CF031FB23880022D4
:10D1B4000380314642F21600FFF722FE70B16E463C
:10D1C40088B002AA2E4B4FF4C251C2E905300323A2
:10D1D400264842F8103F0BF082F8B54695F8D9304E
:10D1E400D90716D50021022320461A4600910BF0D8
:10D1F400BAF870B16E4688B002AA224B4FF4C251FD
:10D20400C2E905300323194842F8103F0BF067F8D0
:10D21400B54695F8D8309A061ED5D5F85C319B688A
:10D224009B0719D5B91D381DFFF76AFEA0B9204622
:10D23400FA88B9880BF079F870B16D4688B002AA03
:10D24400114B4FF4C251C2E905300323074842F899
:10D25400103F0BF044F8AD462046DAE66FF0680064
:10D26400ADE700BFCC9B002045D0010098B8010079
:10D2740066D00100008000207FD00100030000017F
:10D284009BD00100BCD00100D3D0010010B5C1680F
:10D2940088B00B78174C8DF80030B1F801300722B4
:10D2A400ADF80130CB7801A88DF80330B1F80B301C
:10D2B4000431ADF81730B1F80930ADF81930B1F8D0
:10D2C4000B30ADF81B304B7B8DF81D300AF06DFF31
:10D2D400214606220DF10B000AF067FF06222146C3
:10D2E4000DF111000AF061FF6846FFF75DFE08B01A
:10D2F40010BD00BF88CC0100024BD3F85C315B69E0
:10D30400184700BF00800020F8B505460C4600AF62
:10D3140019B9FFF73BFD044618B340F635439D4267
:10D3240019D12046FFF7E8FF054688B16E4688B05C
:10D334006A460D4B4FF4C251C2E9053003230B4832
:10D3440042F8103F0AF0CBFF2046B54604F010FC2B
:10D354002846BD46F8BD214605480CF02CFA0025A8
:10D36400F6E76FF06805F3E7EFD0010098B8010025
:10D37400448100202DE9F04186B00446458B467E69
:10D3840000AF807A04F032FB21460DF0F5FB2D4B03
:10D3940093F88A309B0613D5304602F08BFA044684
:10D3A40090B96C4688B06A46274B4FF4C451C2E921
:10D3B40005360323254842F8103F0AF090FFA5469E
:10D3C4001837BD46BDE8F081837A073B012B0ED99F
:10D3D4001F4B4FF484517B6102231C483B6107F1CE
:10D3E40010020AF07CFF20460BF07BF9E8E70BF013
:10D3F40078F9052140F63540FFF7C8FC044658B9D2
:10D40400144B4FF482517B61022310483B6107F1B6
:10D4140010020AF064FFD3E700F10C080121404632
:10D424000CF0F5F901260421067040460CF0EFF9E2
:10D43400002305808670C370214640F63540FFF70F
:10D4440063FFBDE70080002011D1010098B80100FE
:10D454003AD1010066D101002DE9F04182B0C368E0
:10D4640000AFD9789A78B3F8008042EA01223A8072
:10D4740059791A791FFA88F442EA01227A809A7952
:10D48400D979204642EA0122BA801A7A5B7A42EAC2
:10D494000323FB8001F08AFE0646B0B96D4688B0CE
:10D4A4006A46204B4FF4C251C2E9053403231E4897
:10D4B40042F8103F0AF013FF0221AD4620460AF05D
:10D4C4009EFF0837BD46BDE8F081394601F0DAFF1A
:10D4D40038B91E2120460AF092FF30460BF001F9BC
:10D4E400EFE70E2142F22000FFF750FC054600282A
:10D4F400F3D00E210C300CF08AF904460E220021E0
:10D504000AF05EFEA4F800803B88294663807B888D
:10D5140042F22000A380BB88E380FB882381FFF7CD
:10D52400F3FEDAE7B1CD010098B801002DE9F04F20
:10D53400DFF8548187B0DFF8549100AFD8F80C308D
:10D5440053486FF39433C8F80C3001F0E5FD451CE3
:10D554004FF0FF324FF0FF3329464B4808F0FCFFF1
:10D5640060B140F6C8234A464A494B4809F044FC96
:10D57400404080F311884FF0030002DF4FF0030AAC
:10D58400414E15B908F0D8FCD8E7F368C3F38633E5
:10D59400022B60D9042B68D1337B002B5ED100228F
:10D5A40000233E480CF0D8F8044660B940F65A23EC
:10D5B4004A463B49384809F01FFC404080F3118833
:10D5C4004FF0030002DFDFF8DCB04FF0FF334FF021
:10D5D400FF32354808F03AF8DBF838318BB1334B79
:10D5E4004FF482517B610223314807F110023B6101
:10D5F4000AF075FEDBF8380104F0BAFA0023CBF820
:10D60400383120460CF0D9F8CBF838012046FFF722
:10D6140073FE00B3EB4688B06A46264B4FF4C25102
:10D62400C2E905300323224842F8103F0AF057FEAE
:10D63400DD461D4807F0E4FF204604F0DFF90C2224
:10D644001D4B1F2102FB003022464088FFF7B4F92E
:10D65400204604F08DFA1436013D92E7012BFAD1ED
:10D664003069383802F09CF8F5E76C4688B06A46B1
:10D6740012490F48C2E905134FF4C45142F810AFE0
:10D684000AF02DFEA546E6E7C08200201DCE01006B
:10D69400D4820020D4CF01006ACE0100448100204E
:10D6A40060DE0100008000202081002089D101007B
:10D6B40098B80100EFD0010020980020A4D1010007
:10D6C4002DE9F041044600F10C0630460CF0DFF879
:10D6D400B4F810800546B8F1010F0CD840F66F631A
:10D6E4001B4A1C491C4809F087FB404080F3118801
:10D6F4004FF0030002DF304602210CF0B8F8074671
:10D7040000780AF0CEFDC20706460CD440F67363D7
:10D714000F4A1249104809F06FFB404080F311880A
:10D724004FF0030002DF052321460D4A3878FFF746
:10D734000BF8B30707D56369A4F8108013FA85F5CD
:10D74400E560BDE8F0812046BDE8F04104F010BA80
:10D754001DCE010051CE01006ACE0100C5D10100E9
:10D764006CBD0100B0B5037E0446012B00AF06D0AA
:10D77400032B12D1FEF714FF0020BD46B0BDC368D1
:10D7840018780AF08EFDC207054602D52046FFF739
:10D7940097FFAB07F0D52046ECE76D4688B06A46A4
:10D7A40008490948C2E9051303234FF4C25142F85A
:10D7B400103F0AF094FD2046AD4604F0D9F96FF00D
:10D7C4001500DAE7DED1010098B80100084A0346E3
:10D7D400D2F85C0130B9D96839B1596929B1C2F8B4
:10D7E4005C3170476FF0770070476FF01500704739
:10D7F400008000202DE9F04F454C83B0042100AF98
:10D8040044480AF061FD444DE279444B2046012A24
:10D8140088BF1D466E46FEF753FD8AB06B464049ED
:10D82400D861C3E905153F4903F110027960381D39
:10D8340003F11F0103F1230510F801CB01F801CF17
:10D84400A942F9D101253849384819614FF42351C7
:10D854000AF045FDDFF8B8B0B546DFF8D480354EA0
:10D86400DFF8C890E3790BF1070B9D4239DB94F89C
:10D8740070506E462846FEF717FE8CB06A46B4F820
:10D884007210B4F87630C2E907514FF40075536250
:10D89400DFF8A4C0294BC2E905C015854FF45351E4
:10D8A40042F8103F21480AF01AFDB54694F8716019
:10D8B4003046FEF7F9FD8AB06A46B4F87430204960
:10D8C400C2E907631F4BC2E9051095844FF4335135
:10D8D400164842F8103F0AF002FD0C37BD46BDE879
:10D8E400F08F5846FEF7ECFCEA468AB06A4640F2EE
:10D8F4000133C2E90565D06113844FF413514846DE
:10D9040042F8108F0AF0EBFC0135D546AAE700BFB8
:10D9140000800020D480002014E60100F2D1010030
:10D92400F6D10100000201030400000298B80100CE
:10D934000400000105D2010016D201000600000116
:10D9440054D20100050000012DE9F04188B0654D75
:10D9540000AFD5F85C31996811F001011AD140F695
:10D9640003403A1DFFF74CFA0446002840F0B48007
:10D974007868C3681B785BB905F1D403D3E8AF2F8B
:10D9840002F00902D3E8EF1FC3E8E42F002CF9D119
:10D9940004F0EEF8002141F203003A1DFFF730FADB
:10D9A4000446002840F098807E680822F1684E48BA
:10D9B40001310AF0FAFB304604F0DAF8214641F26C
:10D9C40001003A1DFFF71CFA0446002840F0848049
:10D9D4007868C3685A7885F870205A88A5F8722048
:10D9E4001A7985F87120B3F80720A5F87420B3F8E4
:10D9F4000530A5F8763004F0BBF8214641F2020068
:10DA04003A1DFFF7FDF90446002865D17C684022E1
:10DA1400E168364801310AF0C8FB204604F0A8F852
:10DA240001F096F80446002856D195F88A309B06F2
:10DA34001CD42F4B4FF48451FB6102232D48BB614E
:10DA440007F118020AF04BFC95F87C305E0655D4B9
:10DA5400294B4FF48251FB6102232648BB6107F135
:10DA640018020AF03CFC6FF0120435E0072140F67E
:10DA74003340FFF78BF98046002800F02781072107
:10DA84000C300BF0C4FE2146072206460AF098FB30
:10DA94001B2333700623224674703471414640F6CA
:10DAA4003340F370FFF7ACF90446A8B9012140F6FE
:10DAB4003140FFF76BF90646002800F00781012189
:10DAC4000C300BF0B3FE2246314640F63140FFF7EE
:10DAD40097F904460028B7D020462037BD46BDE854
